:020000040800F2
:1000000000800220F9250008ED040008EF04000834
:10001000F1040008F3040008F504000800000000E3
:10002000000000000000000000000000F7040008CD
:10003000F904000800000000FB040008FD040008AB
:1000400049260008492600084926000849260008D4
:1000500049260008492600084926000849260008C4
:1000600049260008492600084926000849260008B4
:1000700049260008492600084926000849260008A4
:100080004926000849260008492600084926000894
:100090004926000849260008492600084926000884
:1000A0004926000849260008492600084926000874
:1000B0000505000849260008000000004926000840
:1000C0004926000849260008492600084926000854
:1000D0004926000849260008492600084926000844
:1000E0004926000849260008000000000000000022
:1000F0000000000000000000000000000000000000
:100100000000000049260008000000004926000801
:1001100049260008000000004926000800000000F1
:1001200049260008492600084926000849260008F3
:10013000492600084926000849260008000000005A
:1001400049260008492600084926000849260008D3
:1001500049260008492600084926000849260008C3
:10016000492600084926000849260008000000002A
:100170000000000049260008000000000000000008
:100180004926000849260008492600084926000893
:080190004926000800000000F0
:10019800844641EA000313F003036DD1403A41D38A
:1001A80051F8043B40F8043B51F8043B40F8043B49
:1001B80051F8043B40F8043B51F8043B40F8043B39
:1001C80051F8043B40F8043B51F8043B40F8043B29
:1001D80051F8043B40F8043B51F8043B40F8043B19
:1001E80051F8043B40F8043B51F8043B40F8043B09
:1001F80051F8043B40F8043B51F8043B40F8043BF9
:1002080051F8043B40F8043B51F8043B40F8043BE8
:1002180051F8043B40F8043B51F8043B40F8043BD8
:10022800403ABDD2303211D351F8043B40F8043B78
:1002380051F8043B40F8043B51F8043B40F8043BB8
:1002480051F8043B40F8043B103AEDD20C3205D388
:1002580051F8043B40F8043B043AF9D2043208D080
:10026800D2071CBF11F8013B00F8013B01D30B88F2
:1002780003806046704700BF082A13D38B078DD0D0
:1002880010F003038AD0C3F10403D21ADB071CBFA2
:1002980011F8013B00F8013B80D331F8023B20F80C
:1002A800023B7BE7043AD9D3013A11F8013B00F845
:1002B800013BF9D20B7803704B7843708B788370CD
:1002C8006046704753B94AB9002908BF00281CBFC7
:1002D8004FF0FF314FF0FF3000F0E2B8ADF1080CFD
:1002E8006DE904CE02F090FADDF804E0DDE90223BE
:1002F80004B0704700F1340191E838009C46A646E6
:100308004CF8045D90E8FF0FE54600BD90EC210B2A
:10031800704700BF80EC210B704700BF90EC200BAA
:10032800704700BF80EC200B704700BFD0EC200B5B
:10033800704700BFC0EC200B704700BFF0EC020113
:10034800F0EC0211F0EC0221F0EC0231F0EC024189
:10035800F0EC0251F0EC0261F0EC0271F0EC028179
:10036800F0EC0291F0EC02A1F0EC02B1F0EC02C169
:10037800F0EC02D1F0EC02E1F0EC02F1704700BFC2
:10038800E0EC0201E0EC0211E0EC0221E0EC0231C9
:10039800E0EC0241E0EC0251E0EC0261E0EC0271B9
:1003A800E0EC0281E0EC0291E0EC02A1E0EC02B1A9
:1003B800E0EC02C1E0EC02D1E0EC02E1E0EC02F199
:1003C800704700BFB0FC0181B0FC0191B0FC01A1F5
:1003D800B0FC01B1704700BFA0FC0181A0FC0191F5
:1003E800A0FC01A1A0FC01B1704700BFEC4600B51C
:1003F8002DE900502DE9FF1F4FF000032DE90C00F7
:1004080001A902F077FCDDF840E012B0704700BFA8
:10041800EC4600B52DE900502DE9FF1F4FF0000311
:100428002DE90C0001A902F09CFCDDF840E012B0B7
:10043800704700BFEC4600B52DE900502DE9FF1FBD
:100448004FF000032DE90C0001A902F0AAFCDDF829
:1004580040E012B0704700BFEC4600B52DE90050EF
:100468002DE9FF1F4FF000032DE90C0001AB02F04E
:100478006EFCDDF840E012B0704700BFEC4600B5F6
:100488002DE900502DE9FF1F4FF000032DE90C0066
:1004980001AA02F0D7FCDDF840E012B0704700BFB7
:1004A800704700BF10B5054C237833B9044B13B11E
:1004B8000448AFF300800123237010BD40040020DE
:1004C800000000006C36000808B5034B1BB1034957
:1004D8000348AFF3008008BD00000000440400207A
:1004E8006C3600087047FEE7FEE7FEE7FEE7704758
:1004F8007047704708B500F019FD08BD08B50248F7
:1005080000F04FF808BD00BFE005002082B00A4B9C
:100518001A6E42F001021A661A6E02F00102009287
:10052800009A9A6D42F080529A659B6D03F0805351
:100538000193019B02B070470010024010B4036A97
:10054800046A24F001040462846924F0F00C4CEA83
:10055800021223F00A030B43826103625DF8044B25
:10056800704710B4036A23F0100303628469036AB6
:1005780024F4704C4CEA023223F0A00343EA01133E
:10058800826103625DF8044B7047836823F070034F
:100598000B4343F007038360704770477047704709
:1005A800704710B5044603681A6912F0020F11D09B
:1005B800DA6812F0020F0DD06FF002021A610123FF
:1005C800037703689B6913F0030F79D0FFF7E6FF01
:1005D8000023237723681A6912F0040F12D0DA680F
:1005E80012F0040F0ED06FF004021A610223237771
:1005F80023689B6913F4407F68D02046FFF7CEFF3D
:100608000023237723681A6912F0080F12D0DA68DA
:1006180012F0080F0ED06FF008021A610423237736
:100628002368DB6913F0030F57D02046FFF7B6FFA6
:100638000023237723681A6912F0100F12D0DA68A2
:1006480012F0100F0ED06FF010021A6108232377F2
:100658002368DB6913F4407F46D02046FFF79EFFEE
:100668000023237723681A6912F0010F03D0DA6890
:1006780012F0010F3FD123681A6912F0800F03D0DE
:10068800DA6812F0800F3DD123681A6912F4807F6E
:1006980003D0DA6812F0800F3BD123681A6912F090
:1006A800400F03D0DA6812F0400F39D123681A6975
:1006B80012F0200F03D0DA6812F0200F37D110BDE6
:1006C800FFF76BFF2046FFF76AFF81E72046FFF739
:1006D80064FF2046FFF763FF92E72046FFF75DFFC0
:1006E8002046FFF75CFFA3E72046FFF756FF2046AA
:1006F800FFF755FFB4E76FF001021A61204601F0D9
:10070800FFFEB8E76FF080021A61204600F03FF95B
:10071800BAE76FF480721A61204600F039F9BCE735
:100728006FF040021A612046FFF73AFFBEE76FF00C
:1007380020021A61204600F029F9C0E703681E4A22
:10074800904206D0B0F1804F03D0A2F59432904287
:1007580003D123F070034A681343174A90420ED01E
:10076800B0F1804F0BD0A2F59432904207D002F539
:100778009E32904203D002F58062904203D123F466
:100788004073CA68134323F080034A691343036024
:100798008B68C3620B688362074B984207D003F5E6
:1007A800A053984203D003F58063984201D10B69A6
:1007B8000363012343617047002C014060B310B507
:1007C800044690F83D3013B3022384F83D302146A7
:1007D80051F8040BFFF7B2FF012384F8483084F87E
:1007E8003E3084F83F3084F8403084F8413084F853
:1007F800423084F8433084F8443084F8453084F833
:10080800463084F8473084F83D30002010BD80F829
:100818003C3001F0EFFDD7E70120704710B4846841
:1008280024F47F4C42EA03220A4342EA0C02826023
:100838005DF8044B7047000090F83C30012B64D001
:1008480010B50446012380F83C30022380F83D307F
:10085800026890682E4B034093600B68602B40D071
:1008680022D8402B47D00BD9502B0ED1CA684968E3
:100878002068FFF763FE50212068FFF786FE04E03A
:10088800202B0CD008D9302B09D0012384F83D3017
:10089800002084F83C0010BD0BB1102BF5D119468F
:1008A8002068FFF772FEF0E7702B0ED0B3F5005FFB
:1008B800EBD1CB684A6889682068FFF7AFFF2268E8
:1008C800936843F480439360DFE7CB684A6889689C
:1008D8002068FFF7A3FF2268936843F077039360CB
:1008E800D3E7CA6849682068FFF73BFE60212068A3
:1008F800FFF74BFEC9E7CA6849682068FFF71EFE84
:1009080040212068FFF741FEBFE70220704700BF83
:100918008800FEFF90F83C20012A33D030B403460B
:10092800012280F83C20022280F83D2000684268BD
:100938008468154DA84220D022F070020D682A4321
:1009480042601A68104882420AD0B2F1804F07D03C
:10095800A0F59430824203D000F59E30824204D143
:1009680024F08004896821439160012283F83D20A6
:10097800002083F83C0030BC704722F470024D68B8
:100988002A43D9E702207047002C0140704770477E
:100998007047000010B50446016883680269134374
:1009A80042691343C269134308688F4A02401A43D5
:1009B8000A602268536823F44053E1680B4353608C
:1009C800A1692268894B9A4201D0236A1943936826
:1009D80023F430630B4393602368854A934223D002
:1009E800844A934234D0844A93424AD0834A9342F9
:1009F80059D07E4A934268D010227C498B4200F03D
:100A08009580E069B0F5004F00F0C180082A00F237
:100A18002A81DFE812F0F9000F01E700280112012E
:100A2800280128012801150102F55842D2F888202A
:100A380002F00302032A09D8DFE802F002045C0688
:100A48000122DAE70422D8E70822D6E71022D4E701
:100A580002F5E632D2F8882002F00C020C2A0ED8F1
:100A6800DFE802F0070D0D0D090D0D0D4A0D0D0DF6
:100A78000B000022C1E70422BFE70822BDE71022CD
:100A8800BBE702F5E432D2F8882002F03002202ACF
:100A980034D004D8A2B3102A34D10422ADE7302AC6
:100AA80032D10822A9E702F5E232D2F8882002F012
:100AB800C002802A2AD004D852B3402A2AD104225C
:100AC8009BE7C02A28D1082297E702F5C832D2F856
:100AD800882002F44062B2F5006F1FD005D8FAB141
:100AE800B2F5806F1ED1042287E7B2F5406F1BD1A3
:100AF800082282E7022280E702227EE702227CE7C0
:100B080000227AE7102278E7102276E7022274E7BB
:100B1800002272E7102270E710226EE702226CE7CB
:100B280000226AE7102268E7102266E7082A00F226
:100B38008A80DFE802F008882A88278888880500E4
:100B48004FF4004003E000F099FE00287DD0626871
:100B580002EB420383427AD8B0EB023F79D8010E08
:100B680000025308C0184FF0000341F10001FFF7DD
:100B7800A9FBA0F54072224B9A426CD82368D86032
:100B8800002053E000F02CFADFE71E48DFE7082AD0
:100B980063D8DFE802F007210562246262620B0075
:100BA800184803E000F06AFE002858D0626853082D
:100BB80003EB4003B3FBF2F39BB2A3F110014FF632
:100BC800EF7291424DD823F00F02C3F3420313434F
:100BD8002268D360002029E000F062FEE4E700F01C
:100BE800FFF9E1E7074812E0F369FFEF00800040F2
:100BF800003801400044004000480040004C0040DC
:100C0800FFFC0F000024F40000F038FE68B36368AE
:100C180000EB5300B0FBF3F080B2A0F110024FF6E6
:100C2800EF739A4223D82368D860002000232366F4
:100C3800636610BD00F034FEE8E700F0D1F9E5E79F
:100C48004FF40040E3E70120F0E70020EEE7012041
:100C5800ECE70120EAE70120E8E70120E6E70020C9
:100C6800E4E70120E2E70120E0E70020DEE70120D9
:100C7800DCE700BF436A13F0010F06D0026853682F
:100C880023F40033816A0B435360436A13F0020F65
:100C980006D00268536823F48033C16A0B4353605B
:100CA800436A13F0040F06D00268536823F48023C4
:100CB800016B0B435360436A13F0080F06D00268B8
:100CC800536823F40043416B0B435360436A13F0AA
:100CD800100F06D00268936823F48053816B0B438E
:100CE8009360436A13F0200F06D00268936823F4D8
:100CF8000053C16B0B439360436A13F0400F0AD053
:100D08000268536823F48013016C0B435360036C2F
:100D1800B3F5801F0BD0436A13F0800F06D002682A
:100D2800536823F40023816C0B43536070470268B7
:100D3800536823F4C003416C0B435360EBE72DE980
:100D4800F84305460F4616469946DDF820802B687D
:100D5800DC6937EA04040CBF01240024B4423CD106
:100D6800B8F1FF3FF3D000F0EDF8A0EB09004045E3
:100D780021D8B8F1000F1ED02B681A6812F0040FA2
:100D8800E5D0DA6912F4006FE1D04FF400621A621C
:100D98002A68136823F4D07313602A68936823F0D1
:100DA8000103936020236B67AB67EB67002385F82B
:100DB8007030032012E02A68136823F4D07313609C
:100DC8002A68936823F00103936020236B67AB675D
:100DD800002385F87030032000E00020BDE8F88388
:100DE80030B583B004460023C36700F0ABF805466E
:100DF8002268126812F0080F0CD123681B6813F0E0
:100E0800040F15D120236367A367002084F87000BE
:100E180003B030BD6FF07E430093034600224FF4C9
:100E280000112046FFF78BFF0028E6D00320EFE7EC
:100E38006FF07E4300932B4600224FF4800120463A
:100E4800FFF77DFF0028DDD00320E1E768B310B588
:100E58000446436F03B3242363672268136823F0AF
:100E6800010313602046FFF795FD012813D0636A3C
:100E7800BBB92268536823F490435360226893688F
:100E880023F02A0393602268136843F00103136078
:100E98002046FFF7A5FF10BD80F8703001F0F0F98B
:100EA800D9E72046FFF7E6FEE3E701207047000098
:100EB800104B1B780BB90120704710B504464FF44E
:100EC8007A70B0FBF3F30C4A1068B0FBF3F001F052
:100ED800FBF868B90F2C01D901200AE0002221464D
:100EE8004FF0FF3001F0AAF8044B1C60002000E02E
:100EF800012010BD00000020080000200400002090
:100F080010B5094A136843F480731360032001F095
:100F180083F80020FFF7CCFF10B10124204610BD54
:100F28000446FFF7F3FAF9E700200240034B1B7869
:100F3800034A11680B441360704700BF000000208B
:100F48005C040020014B1868704700BF5C04002057
:100F580030B583B00446204B9B6D13F0805F0BD0F7
:100F680001F00AF8B0F5007F17D0802C1FD82DD0DB
:100F7800702C2DD000211BE0174DAB6D43F0805332
:100F8800AB65AB6D03F080530193019B00F0F4FF58
:100F9800AB6D23F08053AB65E4E7802C03D9A02C1C
:100FA80003D9022104E0002102E0012100E003212D
:100FB8000A4A136823F007030B431360136803F00E
:100FC80007038B4206D1002003B030BD0221EFE7B2
:100FD8000121EDE70120F7E7001002400020024060
:100FE800284A9368D26802F0030213F00C030AD06F
:100FF8000C2B06D0042B1FD0082B20D00020024633
:1010080010E0012AF6D11F4A126812F0080F0CD11D
:101018001C4AD2F89420C2F303221B4951F822201B
:1010280043B100200C2B0DD07047164A1268C2F34A
:101038000312F2E71046F5E714480022F2E71448D5
:101048000022EFE70F4BDB6803F00303022B16D0F7
:10105800032B00D10E4A0B49CB68C3F302130133AB
:10106800C868C0F3062002FB00F0B0FBF3F0CB68C1
:10107800C3F3416301335B00B0FBF3F0D4E7034AE9
:10108800E9E700BF00100240A03600080024F40081
:1010980000127A00002800F02783F0B583B00446D8
:1010A800964B9D6805F00C05DE6806F0030603689C
:1010B80013F0100F5AD0E5B10C2D18D0A369002BEE
:1010C80000F0BB808D4A136843F001031360FFF7FB
:1010D80039FF0746894B1B6813F0020F40F09A80CE
:1010E800FFF730FFC01B0228F4D9032007E3012EC5
:1010F800E4D1824B1B6813F0020F03D0A369002BC5
:1011080000F0F482206A7D4B1B6813F0080F5BD057
:101118007A4B1B6803F0F00398425CD8774B1A6847
:1011280042F008021A601A6822F0F002216A0A43A3
:101138001A605A6822F47F42E16942EA01225A6041
:10114800002D60D0FFF74CFF6C4B9B68C3F3031373
:101158006B4AD35C03F01F03D8406A4B18606A4B94
:101168001868FFF7A5FE002840F0C982236813F02D
:10117800010F00F08180082D75D00C2D71D06368A7
:10118800B3F5803F00F09780B3F5A02F00F0998069
:101198005A4B1A6822F480321A601A6822F48022A4
:1011A8001A606368002B00F09980FFF7CBFE0746B2
:1011B800524B1B6813F4003F5ED1FFF7C3FEC01B00
:1011C8006428F5D903209AE24C4BD3F894301B09D4
:1011D80003F0F003A0E7FFF7BBFE002840F0888289
:1011E800464B1A6842F008021A601A6822F0F002A8
:1011F800216A0A431A605A6822F47F42E16942EA86
:1012080001225A609EE7206AFFF7A2FE002899D0C3
:10121800012074E2394B1A6842F008021A601A6811
:1012280022F0F002216A0A431A605A6822F47F42C7
:10123800E16942EA01225A6098E7304A136823F0CC
:1012480001031360FFF77EFE07462C4B1B6813F063
:10125800020F8BD0FFF776FEC01B0228F5D90320BA
:101268004DE2032E8BD1254B1B6813F4003F03D0AE
:101278006368002B00F03E82236813F0020F58D0F9
:10128800042D45D00C2D41D0E368002B77D01B4AA4
:10129800136843F480731360FFF754FE0646174B38
:1012A8001B6813F4806F61D1FFF74CFE801B022886
:1012B800F5D9032023E2114A136843F480331360FD
:1012C8006FE703F18043A3F53C331A6842F48022A8
:1012D8001A601A6842F480321A6062E7FFF732FE39
:1012E8000746064B1B6813F4003FC5D0FFF72AFEDC
:1012F800C01B6428F5D9032001E200BF001002409A
:10130800883600080800002004000020022EBBD107
:10131800AC4B1B6813F4806F03D0E368002B00F01C
:10132800EB81A84A536823F0FE43216943EA01632D
:101338005360236813F0080F4CD063699BB3A14A2C
:10134800D2F8943043F00103C2F89430FFF7FAFD65
:1013580006469C4BD3F8943013F0020F3AD1FFF7AE
:10136800F1FD801B0228F4D90320C8E1954A53688F
:1013780023F0FE43216943EA01635360D9E7914AA8
:10138800136823F480731360FFF7DCFD06468D4B6A
:101398001B6813F4806FCCD0FFF7D4FD801B0228A4
:1013A800F5D90320ABE1874AD2F8943023F0010342
:1013B800C2F89430FFF7C6FD0646824BD3F8943046
:1013C80013F0020F06D0FFF7BDFD801B0228F4D9E9
:1013D800032094E1236813F0040F7AD0794B9B6DB6
:1013E80013F0805F36D1774B9A6D42F080529A6540
:1013F8009B6D03F080530193019B0126724B1B6880
:1014080013F4807F28D0A368012B39D0052B3FD057
:101418006C4BD3F8902022F00102C3F89020D3F847
:10142800902022F00402C3F89020A368002B3DD03E
:10143800FFF788FD0746634BD3F8903013F0020F8F
:1014480046D1FFF77FFDC01B41F288339842F2D99D
:10145800032054E10026D1E75B4A136843F4807304
:101468001360FFF76FFD0746574B1B6813F4807F27
:10147800C9D1FFF767FDC01B0228F5D903203EE15B
:10148800504AD2F8903043F00103C2F89030CCE7CC
:101498004C4BD3F8902042F00402C3F89020D3F8C4
:1014A800902042F00102C3F89020BEE7FFF74AFD02
:1014B8000746444BD3F8903013F0020F08D0FFF7DB
:1014C80041FDC01B41F288339842F2D9032016E14E
:1014D800E6B9236813F0200F35D0636AE3B1394ABF
:1014E800D2F8983043F00103C2F89830FFF72AFD8C
:1014F8000646344BD3F8983013F0020F23D1FFF788
:1015080021FD801B0228F4D90320F8E02D4A936DB1
:1015180023F080539365DCE72A4AD2F8983023F009
:101528000103C2F89830FFF70DFD0646254BD3F8A6
:10153800983013F0020F06D0FFF704FD801B022835
:10154800F4D90320DBE0A36A002B00F0D780022B3C
:1015580027D00C2D00F0D7801A4B1A6822F0807221
:101568001A601B6813F0006F04D1164AD36823F081
:101578000303D360134AD36823F0887323F48033BA
:10158800D360FFF7DFFC04460E4B1B6813F0007FA7
:1015980000F0A880FFF7D6FC001B0228F4D903202E
:1015A800ADE0084BDB6803F00301E26A91420DD01D
:1015B8000C2D00F0A680034B1B6813F0806F2FD012
:1015C80001209CE0001002400070004003F070020F
:1015D800216B0139B2EB011FEAD103F4FE42616BC2
:1015E800B2EB012FE4D103F07842A16BB2EBC16FEB
:1015F800DED103F4C001E26B5208013AB1EB425F5D
:10160800D6D103F0C063226C5208013AB3EB426FA3
:10161800CED13E4B1B6813F0007F49D000206EE00E
:101628003A4A136823F080731360FFF78BFC054672
:10163800364B1B6813F0007F06D0FFF783FC401B76
:101648000228F5D903205AE0304AD36830491940B6
:10165800E36A206B013843EA0013606B43EA002316
:10166800E06B4008013843EA4053206C40080138D9
:1016780043EA4063A06B43EAC0631943D16013682F
:1016880043F080731360D36843F08073D360FFF72F
:1016980059FC04461D4B1B6813F0007F06D1FFF769
:1016A80051FC001B0228F5D9032028E0002026E081
:1016B800164B1A6842F080721A60DA6842F080723B
:1016C800DA60FFF73FFC0446104B1B6813F0007FFD
:1016D80006D1FFF737FC031B022BF5D903200EE0D8
:1016E80000200CE000200AE001207047012006E0FD
:1016F800012004E0012002E0012000E0002003B006
:10170800F0BD0120FBE70120F9E700BF001002400F
:101718008C809D01002800F0988070B50C46054625
:101728004E4B1B6803F007038B420BD24B4A1368DE
:1017380023F007030B431360136803F007038B427E
:1017480040F085802B6813F0010F39D06B68032BAC
:1017580009D0022B26D063BB414A126812F0020F4F
:1017680006D1012070E03E4A126812F0007F70D066
:101778003B498A6822F0030213438B60FFF7E2FBC0
:101788000646374B9B6803F00C036A68B3EB820F7D
:1017980016D0FFF7D7FB801B41F288339842F0D967
:1017A800032051E02E4A126812F4003FE0D10120D4
:1017B8004AE02B4A126812F4806FD9D1012043E025
:1017C8002B6813F0020F06D0254A936823F0F00324
:1017D800A9680B439360214B1B6803F00703A342DE
:1017E8000AD91E4A136823F00703234313601368BA
:1017F80003F00703A3422ED12B6813F0040F06D081
:10180800174A936823F4E063E9680B4393602B68F5
:1018180013F0080F07D0124A936823F4605329691C
:1018280043EAC1039360FFF7DBFB0D4B9B68C3F3EF
:1018380003130C4AD35C03F01F03D8400A4B18600B
:101848000A4B1868FFF734FB70BD01207047012070
:10185800FAE70120F8E70120F6E700BF0020024080
:10186800001002408836000808000020040000200C
:10187800014B1868704700BF0800002008B5FFF743
:10188800F7FF054B9B68C3F30223044AD35C03F0BC
:101898001F03D84008BD00BF00100240983600085A
:1018A80008B5FFF7E5FF054B9B68C3F3C223044A5D
:1018B800D35C03F01F03D84008BD00BF00100240EE
:1018C80098360008F8B504460F46584BDB6813F005
:1018D800030F18D0554BDB6803F0030302689342EB
:1018E80002D001252846F8BD002A00F09D804F4B04
:1018F800DB68C3F3021301334268934201D0012528
:10190800F0E7002509E00368022B56D0032B5BD0D3
:10191800012B41D00125002DE4D1444A136823F05E
:1019280080631360FFF70EFB0646404B1B6813F0FD
:10193800006F05D0FFF706FB831B022BF5D90325A3
:10194800002DCFD1002F4DD138490B6923F07843B2
:1019580023F4FE43A068E268D20642EA0022134359
:101968000B61324A136843F080631360FFF7EAFAA9
:1019780006462E4B1B6813F0006F05D1FFF7E2FAFD
:10198800831B022BF5D90325002DABD1274A1369F8
:10199800A1690B431361A5E7244A126812F0020FEC
:1019A8001ED02248C26822F073026168013943EAF6
:1019B80001131343C3600025ADE71C4A126812F4F3
:1019C800806FEED10125A6E7184A126812F4003F8D
:1019D800E7D1164A126812F4802FE2D101259AE75E
:1019E800012598E7012F0FD01048026922F0C06244
:1019F80022F4FE42A16863695B08013B5B0643EA87
:101A080001231A430261ACE70848026922F4C002C4
:101A180022F4FE42A16823695B08013B5B0543EAA7
:101A280001231A4302619CE701255BE7001002408D
:101A38002DE9F04182B00446036813F4006F25D005
:101A4800C36CB3F5000F06D0B3F5400F12D04BB1FD
:101A5800012637461CE0444AD36843F48033D360F8
:101A6800002708E000210430FFF72CFF074610B1DB
:101A780006460DE000273C4AD2F8883023F440039C
:101A8800E16C0B43C2F88830002601E00026374697
:101A9800236813F4003F70D0334B9B6D13F0805FC5
:101AA8004CD1314B9A6D42F080529A659B6D03F090
:101AB80080530193019B4FF001082C4A136843F4AB
:101AC80080731360FFF73EFA0546284B1B6813F432
:101AD800807F05D1FFF736FA401B0228F5D9032786
:101AE800002F45D1204BD3F8903013F4407315D014
:101AF800626E9A4212D01C4AD2F8903023F4407396
:101B0800D2F8901041F48031C2F89010D2F89010B9
:101B180021F48031C2F89010C2F8903013F0010F10
:101B28000FD1002F40F016810F4AD2F8903023F4DD
:101B38004073616E0B43C2F890301AE04FF0000812
:101B4800BBE7FFF7FFF90546074BD3F8903013F0D2
:101B5800020FE6D1FFF7F6F9401B41F288339842AD
:101B6800F2D90327DDE700BF0010024000700040F3
:101B78003E46B8F1000F40F0EF80236813F0010FE4
:101B880008D0904AD2F8883023F00303216A0B4327
:101B9800C2F88830236813F0020F08D0894AD2F8B7
:101BA800883023F00C03616A0B43C2F8883023683D
:101BB80013F0040F08D0834AD2F8883023F030039A
:101BC800A16A0B43C2F88830236813F0080F08D0C5
:101BD8007C4AD2F8883023F0C003E16A0B43C2F88C
:101BE8008830236813F0200F08D0764AD2F888305E
:101BF80023F44063216B0B43C2F88830236813F445
:101C0800007F08D06F4AD2F8883023F44023616CF3
:101C18000B43C2F88830236813F4806F08D0694AF0
:101C2800D2F8883023F44013A16C0B43C2F88830F3
:101C3800236813F0400F08D0624AD2F8883023F4A2
:101C48004053616B0B43C2F88830236813F0800F50
:101C580008D05C4AD2F8883023F44043A16B0B4388
:101C6800C2F88830236813F4807F08D0554AD2F828
:101C7800883023F44033E16B0B43C2F88830236883
:101C880013F4801F08D04F4AD2F89C3023F0030386
:101C9800216C0B43C2F89C30236813F4005F0FD00B
:101CA800484AD2F8883023F04063216D0B43C2F8CC
:101CB8008830236DB3F1006F54D0B3F1806F56D0E4
:101CC800236813F4002F0FD03E4AD2F8883023F04F
:101CD8004063616D0B43C2F88830636DB3F1006FE8
:101CE8004DD0B3F1806F4FD0236813F4802F0FD0FD
:101CF800344AD2F8883023F04063A16D0B43C2F810
:101D08008830A36DB3F1006F46D0B3F1806F48D02F
:101D1800236813F4804F0CD02A4AD2F8883023F075
:101D28004053E16D0B43C2F88830E36DB3F1805F37
:101D38003FD0236813F4803F08D0224AD2F8883075
:101D480023F00043216E0B43C2F88830304602B0BE
:101D5800BDE8F0813E460CE71A4A936D23F08053A4
:101D680093650AE7D36843F48013D360A8E7012199
:101D7800201DFFF7A7FD0028A2D00646A0E7D368DC
:101D880043F48013D360AFE70121201DFFF79AFDCC
:101D98000028A9D00646A7E7D36843F48013D36088
:101DA800B6E70121201DFFF78DFD0028B0D00646BB
:101DB800AEE70221201DFFF785FD0028B9D00646B1
:101DC800B7E700BF00100240F0B583B0002336E04B
:101DD800042400E00024B4403C4302355F4E46F83A
:101DE80025405F4C2568D44325EA02064F6817F45E
:101DF800803F01D042EA0506594D2E606D6804EA1D
:101E080005064F6817F4003F01D042EA0506544D15
:101E18006E60AD6804EA05064F6817F4801F01D0AC
:101E280042EA05064E4DAE60ED682C404E6816F449
:101E3800001F01D042EA0504494AD46001330A6808
:101E480032FA03F400F087804FF0010C0CFA03FC1F
:101E58001CEA0202F2D04C68651E012D03D9112C30
:101E680001D0122C12D185685E000324B44025EA03
:101E78000405CC68B4402C438460456825EA0C0509
:101E88004C68C4F300149C402C434460C5684FEA76
:101E9800430E032404FA0EF46FEA040C25EA040541
:101EA8008C6804FA0EF42C43C4604C68022C01D0F0
:101EB800122C0FD1DD08083550F8257003F00706FD
:101EC800B6000F24B44027EA04070C69B4403C4329
:101ED80040F8254004680CEA040C4C6804F003043C
:101EE80004FA0EF444EA0C0404604C6814F0805FB1
:101EF800A4D01C4C256E45F001052566246E04F01F
:101F080001040194019C9D08AE1C144C54F82670E1
:101F180003F00306B6000F24B44027EA0407B0F123
:101F2800904F3FF457AF104CA0420ED004F5806498
:101F3800A0420CD004F58064A0420AD004F5806465
:101F4800A0423FF445AF072445E7012443E70224B4
:101F580041E703243FE703B0F0BD00BF00000140A4
:101F68000004014000100240000400480AB18161E9
:101F78007047816270470000024B186800F4C06027
:101F8800704700BF00700040B0F5007F0FD01F4BB6
:101F98001B6803F4C063B3F5806F34D01B4A136821
:101FA80023F4C06343F48063136000207047174B29
:101FB8001B6803F4C063B3F5007F20D0134A13688D
:101FC80023F4C06343F400731360114B1B6832227F
:101FD80002FB03F30F4AA2FB03239B0C013300E02F
:101FE800013B0A4A526912F4806F01D0002BF7D1E5
:101FF800064B5B6913F4806F03D100207047002003
:102008007047032070470020704700BF00700040F1
:102018000800002083DE1B43074AD36823F4E063EB
:102028001B041B0C000200F4E060034343F0BF6391
:1020380043F40033D360704700ED00E000B5194B5E
:10204800DB68C3F30223C3F1070CBCF1040F28BFFC
:102058004FF0040C03F1040EBEF1060F18D9033B30
:102068004FF0FF3E0EFA0CFC21EA0C0199400EFAE3
:1020780003FE22EA0E020A4300280BDB1201D2B249
:1020880000F1604000F5614080F800235DF804FB32
:102098000023E5E700F00F001201D2B2024B1A54F8
:1020A800F4E700BF00ED00E014ED00E0002807DBD6
:1020B80000F01F02400901239340024A42F82030F1
:1020C800704700BF00E100E00138B0F1807F0BD21B
:1020D8004FF0E0235861054AF02182F823100020D0
:1020E800986107221A6170470120704700ED00E0EF
:1020F8000F49D1F8883043F47003C1F888300D4B8C
:102108001A6842F001021A60002098601A6822F0EA
:10211800A85222F410221A604FF48052DA601A682A
:1021280022F480221A6098614FF000638B60704738
:1021380000ED00E00010024010B58AB000240594BC
:102148000694079408940994204BDA6C42F0040230
:10215800DA64DA6C02F004020192019ADA6C42F055
:102168008002DA64DA6C02F080020292029ADA6C77
:1021780042F00102DA64DA6C02F001020392039A77
:10218800DA6C42F00202DA64DB6C03F002030493B7
:10219800049B224620214FF09040FFF7E7FE4FF4C2
:1021A800005305930A4B0693079405A90948FFF7BE
:1021B8000BFE20230593012306930794089405A991
:1021C8004FF09040FFF700FE0AB010BD001002402B
:1021D800000021100008004808B50B480B4B0360AD
:1021E8004FF4E133436000238360C36003610C2232
:1021F80042618361C36103624362FEF727FE00B94F
:1022080008BD00F0E1F9FBE7600400200038014058
:1022180008B50B480B4B03604FF4E13343600023D0
:102228008360C36003610C2242618361C3610362FE
:102238004362FEF70BFE00B908BD00F0C5F9FBE7E5
:10224800E00400200044004008B50B480B4B036035
:102258004FF4E133436000238360C36003610C22C1
:1022680042618361C36103624362FEF7EFFD00B917
:1022780008BD00F0A9F9FBE7600500200048004010
:1022880000B58DB000230793089309930A930B9325
:102298000368374A934208D0364A934227D0364AD1
:1022A800934245D00DB05DF804FB344B1A6E42F4EE
:1022B80080421A661A6E02F480420192019ADA6C20
:1022C80042F00102DA64DB6C03F001030293029B23
:1022D8004FF4C06307930223089303230A93072349
:1022E8000B9307A94FF09040FFF76EFDDAE7234BF9
:1022F8009A6D42F400329A659A6D02F400320392A4
:10230800039ADA6C42F00102DA64DB6C03F0010331
:102318000493049B0C2307930223089303230A9333
:1023280007230B9307A94FF09040FFF74DFDB9E73E
:10233800124B9A6D42F480229A659A6D02F48022BB
:102348000592059ADA6C42F00402DA64DB6C03F059
:1023580004030693069B3023079302230893032361
:102368000A9307230B9307A90548FFF72DFD99E763
:10237800003801400044004000480040001002407E
:102388000008004800B589B000230493059306931C
:10239800079301930293039315484FF0804202601C
:1023A8004FF47A72426010228260C36003618361D5
:1023B800FEF704FA90B94FF48053049304A90C482B
:1023C800FEF73AFA68B900230193039301A9084874
:1023D800FEF7A0FA40B909B05DF804FB00F0F4F884
:1023E800E9E700F0F1F8EEE700F0EEF8F3E700BFF8
:1023F800E00500200368B3F1804F00D0704700B5B6
:1024080083B003F504339A6D42F001029A659B6D1F
:1024180003F001030193019B002211461C20FFF7E2
:102428000DFE1C20FFF742FE03B05DF804FB000020
:102438000246002013280EDC084B1B5C0BB1013050
:10244800F8E7137A53721060044B01211954044BB6
:1024580043F8202070474FF0FF3070477C0600207B
:102468002C060020F0B583B00E46012301930746E1
:1024780028B100F0AAF804464FF0FF352EE00026F8
:1024880001AFF6E71D460133132B19D81A4AD25C5F
:10249800012AF8D1194A52F82320517A0129F2D099
:1024A8005268A242EFDAB5F1FF3FEBD0134A52F877
:1024B8002500427A9142E6D9013242721D46E2E78E
:1024C800B5F1FF3F0AD00D4B53F82520117A517210
:1024D80053F82500C36898474FF0FF353B68B3426F
:1024E80008D000F072F8A042FBD000F06EF8044665
:1024F8000023C9E703B0F0BD7C0600202C060020AD
:1025080008B500233BB1012B04D0054A52F823300B
:1025180003B1984708BD034A9042F4D00133F1E76C
:1025280090060020E005002030B5B1B0442200211B
:102538001FA800F0C7F800241A941B941C941D943B
:102548001E9468222146684600F0BCF802231F93B7
:102558004FF4807222924022239229932A930122D7
:102568002B920A222C9207252D952E932F931FA884
:10257800FEF790FD0F231A9303231B931C941D94BD
:102588001E9404211AA8FFF7C5F800950894099429
:102598000A946846FFF74CFA4FF40070FFF7F4FC12
:1025A80031B030BD08B5FEF7ABFCFFF7BDFFFFF754
:1025B800C3FDFFF72DFEFFF70FFEFFF745FEFFF700
:1025C800E1FE00F006F8FEE7704708B5FEF7BAFC32
:1025D80008BD10B584B0002401948DF80840684601
:1025E800FFF726FF21462046FFF73CFFFEE70000E5
:1025F800DFF834D0FFF77CFD002103E00B4B5B587C
:10260800435004310A480B4B42189A42F6D30A4AFF
:1026180002E0002342F8043B084B9A42F9D300F049
:102628002DF8FFF7BFFFFEE700800220B037000853
:102638000000002040040020400400209C060020E8
:10264800FEE70000002301461A46184600F08CB841
:1026580038B5084B084D5B1B9C1007D0043B1D4444
:10266800013C55F804399847002CF9D1BDE83840A9
:1026780000F0FEBFAC370008A837000870B50D4E53
:102688000D4D761BB61006D0002455F8043B0134D6
:102698009847A642F9D1094E094D761B00F0E2FF92
:1026A800B61006D0002455F8043B01349847A642DA
:1026B800F9D170BDA0370008A0370008A837000876
:1026C800A0370008830730B548D0541E002A3FD0F1
:1026D800CAB2034601E0013C3AD303F8012B9D0737
:1026E800F9D1032C2DD9CDB245EA05250F2C45EAA1
:1026F800054536D9A4F1100222F00F0C03F1200E83
:10270800E6444FEA121C03F1100242E9045542E97B
:10271800025510327245F8D10CF1010214F00C0F79
:1027280003EB021204F00F0C13D0ACF1040323F0F6
:1027380003030433134442F8045B9342FBD10CF0C7
:1027480003042CB1CAB21C4403F8012B9C42FBD1F0
:1027580030BD64461346002CF4D1F9E7034614460D
:10276800BFE71A46A446E0E72DE9F8431D4D0646A3
:10277800286898460F46914600F042F81A4B1B68A5
:10278800D3F848411CB3286865681F2D24DC4EB96E
:102798006B1C0235636044F8257000F033F80020A4
:1027A800BDE8F88304EB85010123C1F88890D4F8CB
:1027B8008821AB401A43022EC4F88821C1F8088149
:1027C800E6D1D4F88C211343C4F88C31E0E703F543
:1027D800A674C3F84841D6E700F014F84FF0FF306C
:1027E800DEE700BF38040020D0360008024B13B1E2
:1027F8000248FFF727BF704700000000592600086D
:10280800704700BF704700BF2DE9F0478C468E46E1
:10281800089E154604461946002B40F0AF807245C5
:10282800B2FA82F743D94FB1C7F120030EFA07FC79
:1028380020FA03F3BD4043EA0C0CBC404FEA154EA6
:10284800A8B2BCFBFEF8230C0EFB18CC08FB00F961
:1028580043EA0C43994528D9EB1808F1FF3204D212
:10286800994502D9A8F102022B44A3EB0903B3FB53
:10287800FEFCA4B20EFB1C330CFB00F044EA03443C
:10288800A04279D92C190CF1FF3304D2A04202D905
:10289800ACF102032C44241A43EA02401EB1FC4066
:1028A800002334607360BDE8F0874246DDE702B973
:1028B800FFDEE7B9AEEB020301214FEA154EA8B2DD
:1028C800B3FBFEFC220C0EFB1C330CFB00F842EAA7
:1028D800034398454ED9EB180CF1FF3204D29845C2
:1028E80002D9ACF102022B44A3EB0803BFE7C7F1FE
:1028F80020012EFA01F3BD400EFA07FE20FA01F17D
:1029080041EA0E014FEA154EAAB2B3FBFEFC0EFBDC
:102918001C300B0C0CFB02F843EA0043984504FA00
:1029280007F423D9EB180CF1FF3004D2984502D9EB
:10293800ACF102002B44A3EB0803B3FBFEFC0CFB39
:1029480002F80EFB1C328BB243EA024398450FD9BA
:10295800EB180CF1FF3104D2984502D9ACF1020111
:102968002B44A3EB080341EA0041A6E76046E2E7EF
:102978006146F6E76246B7E763468CE7734505D9D3
:102988000EB1C6E9000E002108468CE7B3FA83F7BA
:1029980087B9734501D382420AD8841A6EEB0303C0
:1029A80001209C46002E6AD0C6E9004C00217AE737
:1029B8003846F7E7C7F1200CBB4022FA0CF41C4359
:1029C80020FA0CF12EFA0CF30EFA07FE41EA0E017A
:1029D8004FEA144900FA07F5B3FBF9F81FFA84FE29
:1029E80009FB18300B0C08FB0EFA43EA00439A4522
:1029F80002FA07F23FD9E31808F1FF3004D29A45EA
:102A080002D9A8F102002344A3EB0A0389B2B3FB5D
:102A1800F9F809FB183308FB0EFE41EA03418E451D
:102A28002BD9611808F1FF3304D28E4502D9A8F1D9
:102A38000203214443EA0040A0FB0298A1EB0E01E7
:102A48004145CE46434602D306D14D4504D2B9EBA3
:102A5800020E68EB040301388EB1B5EB0E0261EB90
:102A6800030101FA0CFC22FA07F34CEA0303F940CC
:102A7800C6E900319AE74046C6E74346DAE73146F9
:102A880011E703685A004CBF43F0004323F00043AA
:102A9800184470472DE9F0470546164621B34F1EE6
:102AA800B8464FF0000909EB080404EBD47464102D
:102AB80005EBC4010846FFF7E4FFA7424FEAC40A42
:102AC80015D0B04204D9A1450DD004F1FF38EAE78A
:102AD8000AF108002844FFF7D4FF0138B04203D2B6
:102AE80004F10109DFE700210846BDE8F087B0429C
:102AF800E9D8F9E7012806D0022806D000280448BA
:102B080018BF00207047034870470348704700BF4C
:102B1800F9300008FF300008053100081F4B37B5B1
:102B280004468D1E4BB101A92846AFF3008048B971
:102B380000230920236103B030BD1948194B1B1A23
:102B4800DB10019301992A46FFF7A4FF01460028EC
:102B5800EED0FFF796FF4B68A064012B1BD0002B2B
:102B680001F1040010DBFFF78CFF0023C4E9130315
:102B78000368002B0ADAC3F30360FFF7BBFF031EE9
:102B88000CBF09200020D5E70123EFE7FFF779FF05
:102B980003460020CEE700230520CBE70000000015
:102BA800F0360008A03700080368DA0710B50446B5
:102BB80005D49B0700F1480018D5FDF7AFFB236843
:102BC800590703D404F1D000FDF7B0FB23681A07B6
:102BD80003D404F5A870FDF7B1FB2368DB0608D41D
:102BE80004F5E870BDE81040FDF7ECBBFDF78EFB7F
:102BF800E5E710BD0346006800B118447047704708
:102C080070B505460C46216C2846FFF787FF064637
:102C180008B100F0C7FC236C6B6122462B6929467A
:102C2800012098470828EED00728F2D13046216CB9
:102C3800FFF7E5FF201DFDF75DFB2DE9F0470C1DB3
:102C4800D0F80C90D0F818A0074616460FCCADF572
:102C5800727D03AD0FC50FCC0FC50FCC0FC594E81F
:102C68000F000DF1080885E80F000025C8F800508E
:102C7800D8F840103846FFF751FF0936F6B2044637
:102C880068BBD8F840307B614FF4F07241467AA8AF
:102C9800FDF77EFA3B697AAA394630469847889B01
:102CA8000546C8F844303A46CDE9008A3B463146E5
:102CB8000120C847C0B9C4B94FF4F0727AA9404698
:102CC800FDF766FA082D2646D2D0072D0CD12046EE
:102CD800D8F84010FFF793FF03A8FDF70BFBD8F8CF
:102CE800383046F01006DCE7092420460DF5727DE1
:102CF800BDE8F087F0B5CB6B0B640D1D06460F469B
:102D08000FCDF9B001AC0FC40FCD0FC40FCD0FC458
:102D180095E80F0084E80F004FF0FF3300931099F7
:102D28003046FFF7FBFE78B933696A463146984763
:102D380008280446F3D06846FFF736FF062C03D16F
:102D480039463046FFF75CFF092079B0F0BD10B472
:102D58008261DA6BC16010BC1A6419460022FFF761
:102D68006CBF70B5C66843690B6404460D4626B14E
:102D78000122FFF762FF00F015FC03690A460146CD
:102D880002209847072805D00828F4D1294620466C
:102D9800FFF736FF3046296CFFF731FF281DFDF796
:102DA800A9FAC2680AB9FFF7A5BFCA6B0A6400226C
:102DB800FFF743BF012910B50446084605D005D9D9
:102DC800C81E012894BF0120022010BD43B90F2A54
:102DD80006D804EB8204029A616811601846F4E789
:102DE8000220F2E71FB503AB009300230A461946F9
:102DF800FFF7E0FF039805B05DF804FB012910B563
:102E08000446084605D005D9C81E012894BF0120EC
:102E1800022010BD43B90F2A06D8029904EB820498
:102E2800096861601846F4E70220F2E71FB503ABB2
:102E38000093002303920A461946FFF7DFFF05B007
:102E48005DF804FBF0B5D36B1364141D06460F46FA
:102E58000FCCADF50F7D17AD0FC50FCC0FC50FCC3F
:102E68000FC594E80F0085E80F004FF0FF33169365
:102E780026996846FFF752FE90B90C2116A86A46B3
:102E8800FFF7D4FF394616A8B04748B9049B16AADD
:102E98006946082098470528044602D00928E7D142
:102EA800092416A8FFF780FE20460DF50F7DF0BD1A
:102EB8002DE9F04FCE6C87B00D4656F8041B0496EA
:102EC800174600F0030A994663BB09028DF81530CE
:102ED800039103238DF814302B6DBAF1020F08BF4C
:102EE800AE6B13F0010840F0FD8000F0080300937A
:102EF800D6F800B0BBF1000F1ED103A9384600F088
:102F080031FA002851D1B8F1000F00F0E9800F2103
:102F18003846FFF767FF0E2102463846FFF786FF5F
:102F2800724A47E00B0C8DF815300904DBB206EB4A
:102F3800830603910223CDE7B9F1020F0CBF746831
:102F48007488AA6C18BFB6F800B024F001031344C3
:102F58004FF00F0138460CBF083604360193FFF7CF
:102F680041FF019B834222D82BF001021344834284
:102F780094BF00200120640004F002040BF0010B50
:102F880044EA0B04012C19D0022C5DD06CB9341D15
:102F9800BAF1000F10D078B13046FFF772FDAC637C
:102FA80006462846AFF3008018B909202EE0002015
:102FB800E1E732460F2140E0264699E7BAF1000FD3
:102FC80027D100283ED073683268991C4FEAD27224
:102FD800EBD005F158010133029109D0301DFFF7FC
:102FE80009FE02AB01462846AFF30080044648B309
:102FF8000D213846FFF7F6FE022C029B286202D10B
:10300800EB6205F12C03C5E90936062007B0BDE8D7
:10301800F08F0D2138462C6AFFF7E4FE844211D167
:10302800AB6A9E420ED13046FFF72BFD0F210246B8
:103038003846FFF7FBFE2A4600213846FFF7F6FE22
:103048000720E3E7083653E7346824F00044BAF170
:10305800000F29D100B3009B3BB1ECB90D213846D4
:10306800FFF7C0FE029B2862CDE705F15803DDF8A3
:1030780000B00193A345F1D00BF1010B019B029322
:1030880006EB8B00FFF7B6FD0022014602AB28468F
:10309800AFF300800028EDD03368002BB8BF0436AA
:1030A800013406EB840623E70D213846D5F820B015
:1030B800FFF798FE8345EFD1AB6A9E42ECD104231B
:1030C8000022C5E90B23F318AC626B633368002B4D
:1030D80003DA601C06EB8000A6E74FF00108DBE787
:1030E800082093E74FF0000807E700BF0000000042
:1030F8000023FFF7DDBE0123FFF7DABE0223FFF747
:10310800D7BE2DE9F0410546C2B014461E46042933
:1031180000F2B980DFE811F005002000B700AE002A
:10312800DC00002E40F0AF80836B91B20120324664
:103138002F1D00FA02FC1CEA010F1CBF53F804CB38
:1031480047F822C00132102AF3D1A10400D4AB639E
:10315800304642B0BDE8F08106F0FB03012B4FEA90
:10316800124894B240F08F80012E08EB040740F01B
:10317800D480102F00F28780B8F10F0F00F28380FF
:10318800002704E0102FFBD9052E7CD1103F2B68B7
:10319800DA070AD5052E05F1480019D123F00103F5
:1031A80043F002032B60FDF7BDF84FB12B685807B9
:1031B80006D5284623F0040340F8D03BFDF7BAF8BB
:1031C800012E0BD120A8FDF7A5F897B9002712E02A
:1031D80023F003032B60FDF79DF8E6E7B8F10F0F26
:1031E80002D820A8FDF79EF8002FEFD06846FDF71B
:1031F800A1F8C8F11004A96B002C0B460CDD20AB1C
:1032080003EBC802A1EB020CE30002EBC404A242E8
:1032180002EB0C0019D10B4467B14246102A42A9AF
:1032280038BF102201EBC202A2F5C67203EBC70138
:103238008B420ED1012E08BF0433012EAB630DD192
:1032480020A8FDF763F8002682E7006842F8040B1F
:10325800DDE753F8040B42F8040FE9E7B8F10F0F64
:1032680002D820A8FDF75AF8002FECD06846FDF7E1
:103278005DF8E8E7032E06D197B207EB1244102C4D
:103288004FEA124601D9022662E70368190706D5F4
:1032980023F00803036000F5A870FDF771F820A873
:1032A800FDF76EF8AA6B20AB03EBC603F900D41A3E
:1032B80003EBC707BB4203EB040005D10A44AA632A
:1032C80020A8FDF73BF8BEE7006843F8040BF1E7D8
:1032D800002ED8D1102AD6D80368DA0606D523F0EE
:1032E8001003036000F5E870FDF776F820AF384664
:1032F800FDF772F8AB6B0022012101FA02F02042BF
:103308001CBF53F8040B47F822000132042AF4D1F9
:10331800AB633846FDF756F81AE7202FB3D8B8F153
:103328000F0F7FF62FAF2746002C3FF44FAF052E27
:10333800A9D13BE7027A03467AB9427A82B1013AC7
:1033480042724268111D12680260416003221A72BB
:103358001A68100E12021A607047013AD2B2F6E7E4
:10336800B02070472DE9F043054685B08846002611
:103378004046FFF7DFFFB028044611D176B903AC09
:1033880033460E22314600942846FFF713FD009479
:1033980033460F2231462846FFF730FD00202CE047
:1033A80002061DD4002303AF4FEA8009194600978F
:1033B8000D222846FFF7FEFC5FFA89F9039B09F105
:1033C800040914F0400F14BFA3EB09034B44039303
:1033D800009700230D2219462846FFF70FFDC7E77F
:1033E80000F0F003802B19D104024046FFF7A2FF3A
:1033F8000443B4F5004F03D1092005B0BDE8F083BC
:1034080024010023A2B219462846FFF77AFE0028B5
:10341800F2D114F4004F18BF0126A9E7902B0DD163
:1034280000F00D030D2BE7D003AF002300F00F02CF
:10343800009719462846FFF7BDFCC9E7A02B13D112
:10344800C34303F007034FF47F621A4102F47F621B
:10345800030748BF42F48042002319462846FFF775
:1034680050FE002884D0C7E7B02B47D1B12809D136
:103478004046FFF75FFF02460028BDD010F0F0037A
:10348800EBD0B9E7B22820D1002303AC0D221946AE
:1034980000942846FFF78EFC4046FFF74BFF0227B3
:1034A80000F07F0110F08003039A01FA07F105D1BB
:1034B80002F501720A44039200948BE711444046D6
:1034C80003910737FFF736FFEAE7B3280BD14046E9
:1034D800FFF730FF020300F00F0002F47022013002
:1034E80001230243B9E700F0FC03B42B84D000F0B9
:1034F80007020132012342F40022AEE7C02B45D176
:10350800C6280AD14046FFF715FF020300F00F0056
:1035180002F4702201300323E3E7C7280CD14046A8
:10352800FFF708FF024600283FF466AF10F0F003EB
:103538007FF462AF042191E700F0F803C02B06D1B5
:1035480000F00F020132032342F4202285E7C82845
:103558000DD14046FFF7EEFE00F0F00200F00F003C
:1035680010320130052340EA0232012176E7C928EA
:103578007FF442AF4046FFF7DDFE020300F00F0084
:1035880002F47022013005230243EEE700F0F8034D
:10359800D02B7FF431AF00F007020132052342F44B
:1035A8000022E2E708B5062000F004F8012000F048
:1035B80057F800BF38B5154B1F281D6820D8D5F817
:1035C800DC22044662B152F820304BB1012B15D0F1
:1035D800591C0FD0002542F820509847284638BD7E
:1035E800284600F02BF8224601462846BDE8384018
:1035F80000F00EB816232B60012038BD002038BD1E
:1036080016232B604FF0FF3038BD00BF0C000020A0
:1036180070B50C46084D03460026204611461C4648
:103628002E6000F015F8431C00D070BD2B68002BED
:10363800FBD0236070BD00BF9806002000F000B8E2
:10364800024B58221A604FF0FF307047980600204E
:10365800024B58221A604FF0FF307047980600203E
:10366800FEE700BFF8B500BFF8BC08BC9E4670472F
:10367800F8B500BFF8BC08BC9E46704700000000C3
:10368800000000000000000001020304060708090A
:103698000000000001020304A0860100400D0300A1
:1036A800801A060000350C0040420F0080841E007E
:1036B80000093D0000127A000024F40000366E0173
:1036C8000048E801006CDC02100000200000000047
:1036D80008B10181B0B000840000000008B1018188
:0836E800B0B0008400000000F6
:1036F00040EEFF7FB0A93080B4EEFF7FDCFFFF7F9C
:10370000D0EEFF7F01000000CAEEFF7FD8FFFF7FF1
:10371000CAEEFF7FB0A80380DEEEFF7F010000004D
:1037200004F4FF7FB0A9028088F4FF7FB0B0A880C6
:10373000CCF4FF7F01000000D0F4FF7FB0B0AA807E
:1037400002F5FF7FAE71B280B4F5FF7FAB3F3880EA
:1037500006F6FF7F0100000012F6FF7FB0B0AA80DE
:103760004AF6FF7F01000000E4F6FF7FAB0EB28057
:1037700048F7FF7FB0AF068080F9FF7F01000000AF
:103780008AF9FF7FAC3F0180B4FBFF7F010000009E
:10379000DCFBFF7FB0AD048014FEFF7F0100000062
:0837A000F5270008D104000820
:0837A800AD0400080000000060
:1037B000010000001000000000093D001000002082
:1037C00000000000FC02002064030020CC03002065
:1037D00000000000000000000000000000000000E9
:1037E00000000000000000000000000000000000D9
:1037F00000000000000000000000000000000000C9
:1038000000000000000000000000000000000000B8
:1038100000000000000000000000000000000000A8
:103820000000000000000000000000000000000098
:103830000000000000000000000000000000000088
:103840000000000000000000000000000000000078
:103850000000000000000000000000000000000068
:103860000000000000000000010000000000000057
:103870000E33CDAB34126DE6ECDE05000B0000001C
:103880000000000000000000000000000000000038
:103890000000000000000000000000000000000028
:1038A0000000000000000000000000000000000018
:1038B0000000000000000000000000000000000008
:103BE000000000000000000094060020000000001B
:04000005080025F9D1
:00000001FF
